:020000020000FC
:100000000C949F081895189518951895189518959B
:1000100018951895189518950C94C206189518956A
:10002000189518950C94C906189518950C947E0887
:100030000C944A08189518951895189518951895C0
:100040001895189518951895189518951895189548
:10005000189518955D054105220522055D052205C7
:1000600022055D05410522052205220522052205FE
:100070002205220522052205220522052205220548
:100080002205220522052205220522052205220538
:100090002205220522052205220522052205220528
:1000A0002205220522052205220522052205220518
:1000B0002205220522052205220522052205220508
:1000C000220522052205240503053F0526052205F4
:1000D000220522055705410522052205590541053E
:1000E0005B0520E02ABB93983091A40030FB30E000
:1000F00037F9132B1093A1002091A10025BB979AEB
:1001000000C000C000C000C0979805BB05E00A957C
:10011000F1F7000009B3939A08955A924A92BA935C
:10012000AA939A938A93502E0E949506013009F45F
:1001300065C0A0EABFE0452D01E010E00E94B308D1
:10014000402E80E002C0882351F4969A48BA04E613
:1001500010E00E94B30600E008BB969804C004E6D5
:1001600010E00E94B3068395843168F3052D0E9448
:100170009506013011F0119721F7052D0E94950683
:10018000002321F594E680E002C0882351F4969A7A
:1001900048BA0AE010E00E94A10600E008BB969869
:1001A00004C00AE010E00E94A1068395843168F340
:1001B000052D0E949506013011F09A9521F7052D25
:1001C0000E949506002311F401E019C094E680E036
:1001D00002C0882351F4969A48BA04E610E00E94BF
:1001E000B30600E008BB969804C004E610E00E9445
:1001F000B3068395843168F39A9549F700E08991B5
:100200009991A991B9914990599008959A938A9397
:10021000922F3091A40030FB30E037F9132B10936C
:10022000A1002091A10025BB979A00C000C000C08A
:1002300000C0979805BB00E00ABB939820E080E0DF
:10024000482F01E010E00E94B308192F102319F085
:10025000082F63DF202F213019F08395843080F33D
:10026000939A022F8991999108954A92BA93AA93E9
:100270009A938A93B22F00E00ABB20E0A0E04A2FB5
:1002800001E010E00E94B308402E0B2F0421A1F5DD
:100290009398929A0A2F0E949506002361F180E9B3
:1002A00091E0939A929805E010E00E94B306969A26
:1002B00001E010E00E94B30648BA02E310E00E9499
:1002C000A10600E008BB01E010E00E94B30696988A
:1002D0009398929A0AE010E00E94B3060A2F0E94B7
:1002E0009506002341F006E910E00E94A10601975F
:1002F000C1F621E004C020E0A395A83000F2022F4F
:1003000089919991A991B9914990089520E02ABBCA
:100310009398929A3091A40030FB30E037F9132B78
:100320001093A1002091A10025BB979A00C000C0A6
:1003300000C000C0979805BB05E00A95F1F70000E2
:1003400009B3939A92980895949A20E02ABB309129
:10035000A40030FB30E037F9132B1093A10020915B
:10036000A10025BB979A00C000C000C000C09798AC
:1003700005BB9298939801E010E00E94B30609B380
:10038000939A929A08958A93822F939A9298949826
:100390003091A40030FB30E037F9132B1093A1000B
:1003A0002091A10025BB979A00C000C000C000C0EA
:1003B000979805BB0FEF0ABB8BBB969A00E10A9595
:1003C000F1F7929A02E310E00E94A10692989698A3
:1003D00000E00ABB939800E10A95F1F709B3939AFC
:1003E000929A949A081711F001E001C000E08991F7
:1003F00008959A938A93922F939A949A3091A40095
:1004000030FB30E037F9132B1093A1002091A100AD
:1004100025BB979A00C000C000C000C0979805BBDC
:1004200092980FEF0ABB9BBB0AE00A95F1F700C058
:10043000969A89E1949808EE13E00E94B306949A84
:1004400000E00ABB939800E10A95F1F719B3939A7B
:100450000FEF0ABB00E10A95F1F7191729F08A9509
:1004600049F79698929A17C0949808EB1BE00E945F
:10047000B306949A969800E00ABB939800E10A9517
:10048000F1F719B3939A0FEF0ABB00E10A95F1F760
:10049000929A191711F001E001C000E08991999139
:1004A00008959A938A93922F939A949A3091A400E4
:1004B00030FB30E037F9132B1093A1002091A100FD
:1004C00025BB979A00C000C000C000C0979805BB2C
:1004D000929A0FEF0ABB9BBB969A0AE00A95F1F736
:1004E00000C089E19498929808EE13E00E94B30648
:1004F000929A949A0AE00A95F1F700C000E00ABBCC
:100500000AE00A95F1F700C093980AE00A95F1F71E
:1005100000C019B3939A0FEF0ABB0AE00A95F1F7EE
:1005200000C0191729F08A95E9F69698929A23C087
:100530009498929808EB1BE00E94B306929A949AC2
:100540000AE00A95F1F700C0969800E00ABB0AE0BD
:100550000A95F1F700C0939892980AE00A95F1F78E
:1005600000C019B3939A0FEF0ABB00E10A95F1F7A7
:10057000929A191711F001E001C000E08991999158
:100580000895BC01949A939A929A00C000C000C04A
:1005900000C03091A40030FB30E037F9132B1093EA
:1005A000A1003091A10035BB979A00C000C000C0E7
:1005B00000C0979805BB0FEF0ABB2BBB929800C0F9
:1005C00000C000C000C0F894949800C000C000C0F3
:1005D00000C0949A789400E10A95F1F7929A00E0AD
:1005E0000ABB0AE00A95F1F700C0122F10788FEFCE
:1005F0009FEF9298939800C000C000C000C009B35C
:10060000939A929A00C000C000C000C00197007881
:10061000011719F0082F092B61F79298939800C0E1
:1006200000C000C000C009B3939A929A021711F457
:1006300000E001C001E0CB010895949A939A929A48
:100640003091A40030FB30E037F9132B1093A10058
:100650003091A10035BB979A00C000C000C000C017
:10066000979805BB0FEF0ABB2BBB949800E10A9546
:10067000F1F7F894929800C000C000C000C0929AB0
:10068000789400E10A95F1F7949A929A00E00ABBF7
:100690000BE04FE95FE041505040E9F700C0000037
:1006A0000A95B9F79298939805E00A95F1F700003A
:1006B00009B3939A929A021711F400E0089501E0A9
:1006C0000895969A92980AE00A95F1F700C09498D6
:1006D0000AE010E00E94A106949A0AE00A95F1F758
:1006E00000C0929A969800E00895929A939A949AEC
:1006F0000FEF0ABBE4EAF0E0008100FB00E007F93D
:1007000005650093A1000091A10005BB979A00C068
:1007100000C000C000C0979805E505BB0AEA0BBB06
:100720009298949800C000C000C000C0949A929A19
:1007300000C000C000C000C0008100FB00E007F95D
:100740000A620093A1000091A10005BB979A00C026
:1007500000C000C000C097980AEA05BB05E50BBBC6
:100760009298949800C000C000C000C0949A929AD9
:1007700000C000C000C000C0008100FB00E007F91D
:1007800005650093A1000091A10005BB979A00C0E8
:1007900000C000C000C0979805E505BB00E80BBB92
:1007A0009298949800C000C000C000C0949A929A99
:1007B00000C000C000C000C0008100FB00E007F9DD
:1007C00005650093A1000091A10005BB979A00C0A8
:1007D00000C000C000C0979805E505BB0AEA0BBB46
:1007E0009298949800C000C000C000C0949A929A59
:1007F00000C000C000C000C0008100FB00E007F99D
:100800000A620093A1000091A10005BB979A00C065
:1008100000C000C000C097980AEA05BB05E50BBB05
:100820009298949800C000C000C000C0949A929A18
:1008300000C000C000C000C0008100FB00E007F95C
:1008400005650093A1000091A10005BB979A00C027
:1008500000C000C000C0979805E505BB00E10BBBD8
:100860009298949800C000C000C000C0949A929AD8
:1008700000C000C000C000C008EC10E00E94A1064B
:10088000929A939A949A00E00895F89400E0009365
:10089000A1000093A00004E60093A30000E00093F1
:1008A000A40041D000E00093A600AF98979A00C042
:1008B00000C000C000C09798789414C0AF98979A71
:1008C00000C000C000C000C0979800E00093A400E2
:1008D0000091A200002329F0F89400E00093A20008
:1008E00078943ED00091A000002391F3F89400E0AA
:1008F0000093A00078940091A300002321F00A95B2
:100900000093A300E5CF04E60093A3000091A400A8
:100910000023A1F6AF9A979A00C000C000C000C0A3
:10092000979801E0D3CF00E00ABB08BB0FEF07BBED
:1009300004BB0FE102BB0FEF01BB00E008BB9698C0
:10094000949A939A929A0E94230807EB02BF09B7E0
:10095000016009BF05E003BF00E00093BF000895F8
:100960009A938A9323970EC00AE5088300E008BB98
:10097000969841E050E09E0143968C010E94FC064F
:100980000E94480880EA90E007EA10E00E94F8061A
:10099000012B09F494C00091A600002331F541E039
:1009A00050E025EA30E007EA10E00E94730700916A
:1009B000A500035381F0075029F00652A9F20A95C9
:1009C00069F00FC00E947503002311F40AE501C00D
:1009D00000E50883CECF0E946103F6CF0E94D507C1
:1009E000D1CF01E00093A600CDCF0091A500015327
:1009F000073440F5F2E00F9FF001EC5AFF4F0590ED
:100A00001490F001099407EA10E00E94F806023001
:100A1000104008F4B7CF42E050E09E012F5F3F4FF7
:100A200007EA10E00E94730709811A810E94710091
:100A3000088341E050E09E0143968C010E94FC0631
:100A40000E94480800E0CECF3ED09CCF07EA10E0DD
:100A50000E94F8060230104008F494CF42E050E0C3
:100A60009E012F5F3F4F07EA10E00E94730700E0EE
:100A70000093A60009811A810E948601AACF57D04F
:100A800081CF07EA10E00E94F8060230104008F417
:100A900079CF42E050E09E012F5F3F4F07EA10E020
:100AA0000E94730709811A810E94A401C1CF70D0EE
:100AB00069CF9FD067CFCED065CFFDD063CF2396CF
:100AC000899199910895239707EA10E00E94F8060A
:100AD0000330104050F142E050E09E012F5F3F4F45
:100AE00007EA10E00E94730741E050E09E0107EA28
:100AF00010E00E94730700E00093A60008810F70C9
:100B00000883202F09811A810E940601002311F415
:100B10000AE501C000E5088341E050E09E0103EBD7
:100B200010E00E94FC060E9448082396089523972F
:100B300007EA10E00E94F8060330104038F142E066
:100B400050E09E012F5F3F4F07EA10E00E947307BD
:100B500041E050E09E0107EA10E00E94730700E0C8
:100B60000093A600288109811A810E943501002383
:100B700011F40AE501C000E5088341E050E09E0160
:100B800003EB10E00E94FC060E944808239608959B
:100B9000239707EA10E00E94F8060330104038F16E
:100BA00042E050E09E012F5F3F4F07EA10E00E94B5
:100BB000730741E050E09E0107EA10E00E947307CE
:100BC00000E00093A600288109811A810E94C301D8
:100BD000002311F40AE501C000E5088341E050E07C
:100BE0009E0103EB10E00E94FC060E944808239639
:100BF0000895239707EA10E00E94F806033010409A
:100C000038F142E050E09E012F5F3F4F07EA10E0CD
:100C10000E94730741E050E09E0107EA10E00E9445
:100C2000730700E00093A600288109811A810E94C1
:100C3000F901002311F40AE501C000E5088341E051
:100C400050E09E0103EB10E00E94FC060E94480861
:100C500023960895239707EA10E00E94F8060330D0
:100C6000104038F142E050E09E012F5F3F4F07EA0D
:100C700010E00E94730741E050E09E0107EA10E097
:100C80000E94730700E00093A600288109811A8161
:100C90000E945102002311F40AE501C000E5088317
:100CA00041E050E09E0103EB10E00E94FC060E9430
:100CB000480823960895239707EA10E00E94F80653
:100CC0000330104080F142E050E09E012F5F3F4F23
:100CD00007EA10E00E94730741E050E09E0107EA36
:100CE00010E00E94730700E00093A6000091A500A9
:100CF000083340E050E0288109811A8119F40E94EC
:100D0000C10202C00E941D03002311F40AE501C0C4
:100D100000E5088341E050E09E0103EB10E00E94F3
:100D2000FC060E9448082396089529B3402F01E04D
:100D300010E00E94B308202311F400E0089501E0C0
:100D40000895392F482F202F212B51F0C8010FE98A
:100D50001FE001501040E9F700C000000197B9F70B
:100D6000842F932F0895392F482F202F212B39F0CE
:100D7000C80105E00A95F1F700000197D1F7842F2B
:100D8000932F08950A9300E00EBD0093BF000991D0
:100D900018950A9307EB02BF01E00093A0000991A8
:100DA0001895F80120833183240F351F2283338364
:100DB000208131812483358326833783408751877F
:100DC00020E02287238708952FB72093D000F8943E
:100DD000F80120813181248335832081318126836C
:100DE000378320E0228723870091D0000FBF08952A
:100DF000F801028513850895BA93AA939A938A936A
:100E0000B801D9010FB70093D000F894E62FF12F65
:100E10000085118522853385021B130B2091D0009C
:100E20002FBF0417150708F4A8018A012FB72093D4
:100E3000D000F89422813381048015801001240EA3
:100E4000351E2215330578F5421B530B400D511DFD
:100E500020193109022E032A79F0C9010D9024814D
:100E6000F581E22F0082FB01248135812F5F3F4F06
:100E700024833583019791F7208131812483358341
:100E8000242F252B11F1CA014D912481F581E22FE8
:100E90004083FB01248135812F5F3F4F24833583BD
:100EA000019791F712C0242F252B79F0CA014D919B
:100EB0002481F581E22F4083FB01248135812F5F5E
:100EC0003F4F24833583019791F722853385200F87
:100ED000311F228733872091D0002FBF89919991AC
:100EE000A991B9910895BA93AA939A938A93B80154
:100EF000D901F801028513850417150708F4A80124
:100F00008A012FB72093D000F89422813381068084
:100F100017801001240E351E2215330578F5421B6B
:100F2000530B400D511D20193109022E032A79F06F
:100F3000C9012681F781E22F20812D93FB012681B3
:100F400037812F5F3F4F26833783019791F72081A9
:100F5000318126833783242F252B11F1CA01268165
:100F6000F781E22F20812D93FB01268137812F5FAE
:100F70003F4F26833783019791F712C0242F252BEB
:100F800079F0CA012681F781E22F20812D93FB01A0
:100F9000268137812F5F3F4F26833783019791F753
:100FA00022853385201B310B94CF9A938A9380E05E
:100FB00090E09398929A082F1091A40010FB07F9E3
:100FC0000093A1000091A10005BB979A00C000C04A
:100FD00000C000C0979885BB01960091A000002337
:100FE00039F1F89400E00093A00078940091A300F8
:100FF000002321F00A950093A3001AC00EE100938C
:10100000A3000091A400002349F4AF9A979A00C06E
:1010100000C000C000C0979801E008C0AF98979A40
:1010200000C000C000C000C0979800E00093A4007A
:1010300007EA10E00E94F806012B09F4BCCF939A4E
:1010400089919991089548E050E020EC30E007EA5A
:1010500010E00E94D10607EA10E00E94E40648E092
:1010600050E028EC30E003EB10E00E94D10603EBE7
:1010700010E00E94E4060EE800BD07E009B900E0B8
:101080000BB90AB108690AB900E00093D1000895CC
:10109000559A08958A93FA93EA933A922A921A9269
:1010A0000A927A936A935A934A933A932A931A9399
:1010B0000A938FB7219703EB10E00E94F806012BEB
:1010C00011F4559809C041E050E09E0103EB10E097
:1010D0000E94730708810CB921968FBF099119915D
:1010E0002991399149915991699179910990199072
:1010F00029903990E991F991899118958A93FA93F9
:10110000EA933A922A921A920A927A936A935A939B
:101110004A933A932A931A930A938FB721970CB163
:10112000088341E050E09E0107EA10E00E94FC06BF
:1011300001E00093A200D0CF00008895FECF0FE918
:101140000DBF00E00EBFC0E8D0E00E94B60800234B
:1011500011F00E94C6080E9445040E949C080C944D
:101160009C08000F111F4A95E2F7089501E00895C9
:1011700020E006D0E9F70895259102D0E9F7089517
:101180002D9301501040202F212B089580EC91E1E8
:10119000FC0105911491FC013296A591B491FC01DA
:1011A000349625913491422F432B19F0F901E4DF55
:1011B00001C0DEDF069611E1863C910748F30895F1
:0611C0003200A000000057
:0400000300000000F9
:00000001FF
