:020000020000FC
:100000000C949008189518951895189518951895AA
:1000100018951895189518950C94B3061895189579
:10002000189518950C94BA06189518950C946F08A5
:100030000C943B08189518951895189518951895CF
:100040001895189518951895189518951895189548
:10005000189518954F053305140514054F0514051B
:1000600014054F053305140514051405140514056E
:1000700014051405140514051405140514051405B8
:1000800014051405140514051405140514051405A8
:100090001405140514051405140514051405140598
:1000A0001405140514051405140514051405140588
:1000B0001405140514051405140514051405140578
:1000C0001405140514051605F50431051805140565
:1000D0001405140549053305140514054B053305AE
:1000E0004D0520E02ABB93983091A40030FB30E00E
:1000F00037F9132B1093A1002091A10025BB979AEB
:1001000000C000C000C000C0979805BB05E00A957C
:10011000F1F709B3939A08955A924A92BA93AA931F
:100120009A938A93502E0E948706013009F465C085
:10013000A0EABFE0452D01E010E00E94A408402E97
:1001400080E002C0882351F4969A48BA04E610E091
:100150000E94A50600E008BB969804C004E610E0E3
:100160000E94A5068395843168F3052D0E948706B9
:10017000013011F0119721F7052D0E948706002309
:1001800021F594E680E002C0882351F4969A48BA9B
:100190000AE010E00E94930600E008BB969804C0B5
:1001A0000AE010E00E9493068395843168F3052DE0
:1001B0000E948706013011F09A9521F7052D0E94C3
:1001C0008706002311F401E019C094E680E002C024
:1001D000882351F4969A48BA04E610E00E94A506D6
:1001E00000E008BB969804C004E610E00E94A50653
:1001F0008395843168F39A9549F700E08991999144
:10020000A991B9914990599008959A938A93922F00
:100210003091A40030FB30E037F9132B1093A1008C
:100220002091A10025BB979A00C000C000C000C06B
:10023000979805BB00E00ABB939820E080E0482F28
:1002400001E010E00E94A408192F102319F0082FD4
:1002500063DF202F213019F08395843080F3939A47
:10026000022F8991999108954A92BA93AA939A93E9
:100270008A93B22F00E00ABB20E0A0E04A2F01E001
:1002800010E00E94A408402E0B2F0421A1F59398A2
:10029000929A0A2F0E948706002361F180E991E07B
:1002A000939A929805E010E00E94A506969A01E0C4
:1002B00010E00E94A50648BA02E310E00E949306EF
:1002C00000E008BB01E010E00E94A5069698939814
:1002D000929A0AE010E00E94A5060A2F0E94870663
:1002E000002341F006E910E00E9493060197C1F651
:1002F00021E004C020E0A395A83000F2022F8991EC
:100300009991A991B9914990089520E02ABB9398B9
:10031000929A3091A40030FB30E037F9132B109300
:10032000A1002091A10025BB979A00C000C000C089
:1003300000C0979805BB05E00A95F1F709B3939AB9
:1003400092980895949A20E02ABB3091A40030FB43
:1003500030E037F9132B1093A1002091A10025BBA9
:10036000979A00C000C000C000C0979805BB929843
:10037000939801E010E00E94A50609B3939A929A1F
:1003800008958A93822F939A929894983091A4001A
:1003900030FB30E037F9132B1093A1002091A1001E
:1003A00025BB979A00C000C000C000C0979805BB4D
:1003B0000FEF0ABB8BBB969A0FE00A95F1F7929A62
:1003C00002E310E00E9493069298969800E00ABB20
:1003D00093980FE00A95F1F709B3939A929A949A39
:1003E000081711F001E001C000E0899108959A9387
:1003F0008A93922F939A949A3091A40030FB30E024
:1004000037F9132B1093A1002091A10025BB979AD7
:1004100000C000C000C000C0979805BB92980FEFC5
:100420000ABB9BBB0AE00A95F1F7969A89E194987A
:1004300008EE13E00E94A506949A00E00ABB939888
:100440000FE00A95F1F719B3939A0FEF0ABB0FE08B
:100450000A95F1F7191729F08A9549F79698929A13
:1004600017C0949808EB1BE00E94A506949A9698F2
:1004700000E00ABB93980FE00A95F1F719B3939A3D
:100480000FEF0ABB0FE00A95F1F7929A191711F0D6
:1004900001E001C000E08991999108959A938A93AF
:1004A000922F939A949A3091A40030FB30E037F960
:1004B000132B1093A1002091A10025BB979A00C097
:1004C00000C000C000C0979805BB929A0FEF0ABB0E
:1004D0009BBB969A0AE00A95F1F789E19498929865
:1004E00008EE13E00E94A506929A949A0AE00A95F3
:1004F000F1F700E00ABB0AE00A95F1F793980AE0E9
:100500000A95F1F719B3939A0FEF0ABB0AE00A951F
:10051000F1F7191729F08A9509F79698929A20C051
:100520009498929808EB1BE00E94A506929A949AE0
:100530000AE00A95F1F7969800E00ABB0AE00A95EE
:10054000F1F7939892980AE00A95F1F719B3939A04
:100550000FEF0ABB0FE00A95F1F7929A191711F005
:1005600001E001C000E0899199910895BC01949A3D
:10057000939A929A00C000C000C000C03091A400BD
:1005800030FB30E037F9132B1093A1003091A1001C
:1005900035BB979A00C000C000C000C0979805BB4B
:1005A0000FEF0ABB2BBB929800C000C000C000C078
:1005B000F894949800C000C000C000C0949A789449
:1005C0000FE00A95F1F7929A00E00ABB0AE00A955B
:1005D000F1F7122F10788FEF9FEF9298939800C049
:1005E00000C000C000C009B3939A929A00C000C036
:1005F00000C000C001970078011719F0082F092BDF
:1006000061F79298939800C000C000C000C009B381
:10061000939A929A021711F400E001C001E0CB0115
:100620000895949A939A929A3091A40030FB30E006
:1006300037F9132B1093A1003091A10035BB979A85
:1006400000C000C000C000C0979805BB0FEF0ABBF8
:100650002BBB94980FE00A95F1F7F894929800C09C
:1006600000C000C000C0929A78940FE00A95F1F79C
:10067000949A929A00E00ABB0BE045EA5EE0415092
:100680005040E9F700C000000A95B9F79298939896
:1006900005E00A95F1F7000009B3939A929A0217C0
:1006A00011F400E0089501E00895969A92980AE006
:1006B0000A95F1F794980AE010E00E949306949A44
:1006C0000AE00A95F1F7929A969800E00895929AB6
:1006D000939A949A0FEF0ABBE4EAF0E0008100FBE2
:1006E00000E007F905650093A1000091A10005BB9A
:1006F000979A00C000C000C000C0979805E505BBF0
:100700000AEA0BBB9298949800C000C000C000C0D9
:10071000949A929A00C000C000C000C0008100FB03
:1007200000E007F90A620093A1000091A10005BB57
:10073000979A00C000C000C000C097980AEA05BBA5
:1007400005E50BBB9298949800C000C000C000C0A3
:10075000949A929A00C000C000C000C0008100FBC3
:1007600000E007F905650093A1000091A10005BB19
:10077000979A00C000C000C000C0979805E505BB6F
:1007800000E80BBB9298949800C000C000C000C065
:10079000949A929A00C000C000C000C0008100FB83
:1007A00000E007F905650093A1000091A10005BBD9
:1007B000979A00C000C000C000C0979805E505BB2F
:1007C0000AEA0BBB9298949800C000C000C000C019
:1007D000949A929A00C000C000C000C0008100FB43
:1007E00000E007F90A620093A1000091A10005BB97
:1007F000979A00C000C000C000C097980AEA05BBE5
:1008000005E50BBB9298949800C000C000C000C0E2
:10081000949A929A00C000C000C000C0008100FB02
:1008200000E007F905650093A1000091A10005BB58
:10083000979A00C000C000C000C0979805E505BBAE
:1008400000E10BBB9298949800C000C000C000C0AB
:10085000949A929A00C000C000C000C008EC10E05A
:100860000E949306929A939A949A00E00895F894BD
:1008700000E00093A1000093A00004E60093A30011
:1008800000E00093A40041D000E00093A600AF98E0
:10089000979A00C000C000C000C09798789414C018
:1008A000AF98979A00C000C000C000C0979800E0C1
:1008B0000093A4000091A200002329F0F89400E026
:1008C0000093A20078943ED00091A000002391F301
:1008D000F89400E00093A00078940091A300002316
:1008E00021F00A950093A300E5CF04E60093A3004E
:1008F0000091A4000023A1F6AF9A979A00C000C00F
:1009000000C000C0979801E0D3CF00E00ABB08BB4D
:100910000FEF07BB04BB0FE102BB0FEF01BB00E011
:1009200008BB9698949A939A929A0E94140807EB9F
:1009300002BF09B7016009BF05E003BF00E00093F3
:10094000BF0008959A938A9323970EC00AE50883FF
:1009500000E008BB969841E050E09E0143968C0170
:100960000E94ED060E94390880EA90E007EA10E054
:100970000E94E906012B09F494C00091A60000230F
:1009800031F541E050E025EA30E007EA10E00E944E
:1009900064070091A500035381F0075029F0065227
:1009A000A9F20A9569F00FC00E946703002311F4B1
:1009B0000AE501C000E50883CECF0E945503F6CFBB
:1009C0000E94C607D1CF01E00093A600CDCF0091D1
:1009D000A5000153073440F5F2E00F9FF001EC5AF7
:1009E000FF4F05901490F001099407EA10E00E946F
:1009F000E9060230104008F4B7CF42E050E09E0113
:100A00002F5F3F4F07EA10E00E94640709811A81B7
:100A10000E947100088341E050E09E0143968C01E2
:100A20000E94ED060E94390800E0CECF3ED09CCF58
:100A300007EA10E00E94E9060230104008F494CF63
:100A400042E050E09E012F5F3F4F07EA10E00E9416
:100A5000640700E00093A60009811A810E948501C5
:100A6000AACF57D081CF07EA10E00E94E9060230F2
:100A7000104008F479CF42E050E09E012F5F3F4FD5
:100A800007EA10E00E94640709811A810E94A2010E
:100A9000C1CF70D069CF9FD067CFCED065CFFDD00A
:100AA00063CF2396899199910895239707EA10E0DF
:100AB0000E94E9060330104050F142E050E09E01F0
:100AC0002F5F3F4F07EA10E00E94640741E050E0CB
:100AD0009E0107EA10E00E94640700E00093A60070
:100AE00008810F700883202F09811A810E94050157
:100AF000002311F40AE501C000E5088341E050E05D
:100B00009E0103EB10E00E94ED060E943908239637
:100B10000895239707EA10E00E94E9060330104089
:100B200038F142E050E09E012F5F3F4F07EA10E0AE
:100B30000E94640741E050E09E0107EA10E00E9435
:100B4000640700E00093A600288109811A810E94B1
:100B50003401002311F40AE501C000E5088341E0F7
:100B600050E09E0103EB10E00E94ED060E94390860
:100B700023960895239707EA10E00E94E9060330C0
:100B8000104038F142E050E09E012F5F3F4F07EAEE
:100B900010E00E94640741E050E09E0107EA10E087
:100BA0000E94640700E00093A600288109811A8151
:100BB0000E94C101002311F40AE501C000E5088389
:100BC00041E050E09E0103EB10E00E94ED060E9420
:100BD000390823960895239707EA10E00E94E90652
:100BE0000330104038F142E050E09E012F5F3F4F4C
:100BF00007EA10E00E94640741E050E09E0107EA26
:100C000010E00E94640700E00093A600288109819B
:100C10001A810E94F701002311F40AE501C000E5E2
:100C2000088341E050E09E0103EB10E00E94ED06D6
:100C30000E94390823960895239707EA10E00E943E
:100C4000E9060330104038F142E050E09E012F5F8A
:100C50003F4F07EA10E00E94640741E050E09E0128
:100C600007EA10E00E94640700E00093A6002881D4
:100C700009811A810E944E02002311F40AE501C085
:100C800000E5088341E050E09E0103EB10E00E9484
:100C9000ED060E94390823960895239707EA10E08D
:100CA0000E94E9060330104080F142E050E09E01CE
:100CB0002F5F3F4F07EA10E00E94640741E050E0D9
:100CC0009E0107EA10E00E94640700E00093A6007E
:100CD0000091A500083340E050E0288109811A8185
:100CE00019F40E94B60202C00E941103002311F4FD
:100CF0000AE501C000E5088341E050E09E0103EBF6
:100D000010E00E94ED060E9439082396089529B349
:100D1000402F01E010E00E94A408202311F400E01D
:100D2000089501E00895392F482F202F212B51F0ED
:100D3000C80105EA1EE001501040E9F700C00000BC
:100D40000197B9F7842F932F0895392F482F202F1B
:100D5000212B31F0C80105E00A95F1F70197D9F789
:100D6000842F932F08950A9300E00EBD0093BF00D7
:100D7000099118950A9307EB02BF01E00093A000C8
:100D800009911895F80120833183240F351F2283A0
:100D900033832081318124833583268337834087C1
:100DA000518720E02287238708952FB72093D00012
:100DB000F894F801208131812483358320813181A9
:100DC0002683378320E0228723870091D0000FBF3E
:100DD0000895F801028513850895BA93AA939A930A
:100DE0008A93B801D9010FB70093D000F894E62F89
:100DF000F12F0085118522853385021B130B20916D
:100E0000D0002FBF0417150708F4A8018A012FB7D7
:100E10002093D000F8942281338104801580100142
:100E2000240E351E2215330578F5421B530B400D59
:100E3000511D20193109022E032A79F0C9010D90A4
:100E40002481F581E22F0082FB01248135812F5F0F
:100E50003F4F24833583019791F72081318124838B
:100E60003583242F252B11F1CA014D912481F58161
:100E7000E22F4083FB01248135812F5F3F4F248384
:100E80003583019791F712C0242F252B79F0CA01E1
:100E90004D912481F581E22F4083FB01248135812E
:100EA0002F5F3F4F24833583019791F72285338548
:100EB000200F311F228733872091D0002FBF8991C7
:100EC0009991A991B9910895BA93AA939A938A9303
:100ED000B801D901F801028513850417150708F434
:100EE000A8018A012FB72093D000F8942281338182
:100EF000068017801001240E351E2215330578F563
:100F0000421B530B400D511D20193109022E032A9B
:100F100079F0C9012681F781E22F20812D93FB0111
:100F2000268137812F5F3F4F26833783019791F7C3
:100F30002081318126833783242F252B11F1CA018B
:100F40002681F781E22F20812D93FB0126813781B5
:100F50002F5F3F4F26833783019791F712C0242FCD
:100F6000252B79F0CA012681F781E22F20812D936C
:100F7000FB01268137812F5F3F4F268337830197FF
:100F800091F722853385201B310B94CF9A938A9356
:100F900080E090E09398929A082F1091A40010FBA3
:100FA00007F90093A1000091A10005BB979A00C02A
:100FB00000C000C000C0979885BB01960091A000BA
:100FC000002339F1F89400E00093A0007894009198
:100FD000A300002321F00A950093A3001AC00EE19C
:100FE0000093A3000091A400002349F4AF9A979ABC
:100FF00000C000C000C000C0979801E008C0AF98D2
:10100000979A00C000C000C000C0979800E000930D
:10101000A40007EA10E00E94E906012B09F4BCCF06
:10102000939A89919991089548E050E020EC30E03E
:1010300007EA10E00E94C20607EA10E00E94D50607
:1010400048E050E028EC30E003EB10E00E94C206DC
:1010500003EB10E00E94D5060EE800BD07E009B9D9
:1010600000E00BB90AB108690AB900E00093D100A9
:101070000895559A08958A93FA93EA933A922A9298
:101080001A920A927A936A935A934A933A932A93BA
:101090001A930A938FB7219703EB10E00E94E90699
:1010A000012B11F4559809C041E050E09E0103EB7B
:1010B00010E00E94640708810CB921968FBF099146
:1010C0001991299139914991599169917991099091
:1010D000199029903990E991F991899118958A93FD
:1010E000FA93EA933A922A921A920A927A936A931C
:1010F0005A934A933A932A931A930A938FB7219754
:101100000CB1088341E050E09E0107EA10E00E9424
:10111000ED0601E00093A200D0CF00008895FECF3D
:101120000FE90DBF00E00EBFC0E8D0E00E94A708A5
:10113000002311F00E94B7080E9437040E948D0816
:101140000C948D08000F111F4A95E2F7089501E0F5
:10115000089520E006D0E9F70895259102D0E9F737
:1011600008952D9301501040202F212B089582EADD
:1011700091E1FC0105911491FC013296A591B49185
:10118000FC01349625913491422F432B19F0F9013B
:10119000E4DF01C0DEDF069611E1883A910748F3EB
:0811A00008953200A0000000D8
:0400000300000000F9
:00000001FF
